S0150000436869636B656E4B696C6C65722E73726563F7
S113000019C033C032C031C030C02FC02EC02DC083
S11300102CC02BC02AC029C028C027C026C025C098
S113002024C023C022C021C020C01FC01EC01DC0C8
S11300301CC01BC011241FBECFEFD4E0DEBFCDBF58
S113004011E0A0E0B1E0EAEFF1E102C005900D9209
S1130050A634B107D9F721E0A6E4B1E001C01D92AE
S1130060AC3BB207E1F76DD3C6C8CACF20915001AB
S11300703091510180915201909153012817390711
S113008069F4209192013091930180914A019091F9
S11300904B012817390721F080E0089580E0089586
S11300A081E0089570E09B014CE3849F200D311D95
S11300B01124C9010895CF92DF92EF92FF920F931A
S11300C01F93CF93DF9300D000D01F92CDB7DEB73C
S11300D0D62E072F182F652F842FE4DF7C01602F85
S11300E08D2DE0DF8E199F09BC01990F880B990BA8
S11300F094D46B017C01612F70E080E090E08BD49C
S11301009B01AC01C701B601EDD30F900F900F9086
S11301100F900F90DF91CF911F910F91FF90EF906F
S1130120DF90CF9008959C01992314F4215F3F4FF1
S113013035952795359527953595279535952795A3
S1130140A90142955295507F5427407F5427841B20
S1130150950B220F922F990F990F290F820F089553
S11301602DEC829F212D1124269526952695322F3C
S1130170330F932F990F990F930F891B90E030E160
S1130180239F800D911D11240895CF92DF92EF9249
S1130190FF920F931F93CF93DF9300D000D01F9251
S11301A0CDB7DEB7082FFAD08091900190919101DC
S11301B0BADF1FEF180F8091480190914901B3DF16
S11301C0800F0FEF080FE12FF0E0CF01880F991F88
S11301D0880F991FE80FF91FEC5AFE4F85E0DE01E6
S11301E0119601900D928A95E1F749815A816B81AC
S11301F07C818D8160DF6B017C01602F70E080E089
S113020090E009D49B01AC01C701B60192D4D2D3CA
S11302106B017C016A81898145DFC80ED91EC60144
S11302206CE370E0E9D4862F9CE3699FC018112425
S113023097DF90935101809350018C2D91DF90931F
S11302409301809392010F900F900F900F900F9055
S1130250DF91CF911F910F91FF90EF90DF90CF909E
S11302600895E4E5F1E027E0208366E361832283D7
S113027081E283839FE194832583968386E0878349
S11302803CE230873CE1318782873AE233878487D6
S113029036E235879687878733E2308B45E0418B9A
S11302A034E2328B3EE1338B448B52E2558B54E083
S11302B0568B75E3778B908F518FA4E3A28F538F66
S11302C0B1E3B48F358F568F52E3578F40A355E176
S11302D051A392A343A347E144A385A326A397A3D1
S11302E080A748E041A782A7A3A734A785A776A73C
S11302F087A749E240AB91AB82AB8BE283AB24ABE3
S11303008DE185AB36AB27AB30AF21AF62AF93AF96
S1130310089588D00895CF93C82F80ED89D08C2F6D
S1130320D7D081EDA9D0EAD090E090934D0180938D
S11303304C01E4D090E090934B0180934A01E8D0C3
S113034090E09093530180935201BAD0CF910895D5
S113035080E0E1DF0895CF93C82F80ED69D08C2F22
S1130360B7D081ED89D0CAD090E090934F018093AB
S11303704E01C4D090E09093490180934801BED0CF
S113038090E09093910180939001C2D090E090937B
S113039047018093460194D0CF91089583E0DBDF39
S11303A008951F93CF93DF93D62F142FC82FC22BFA
S11303B080ED3ED080E08CD0812F8AD08D2F88D0E4
S11303C08C2F86D07DD0DF91CF911F9108950F930C
S11303D01F93CF93DF93082F162FD42FC22F80EDB6
S11303E027D083E075D0802F73D0812F71D08D2FCB
S11303F06FD08C2F6DD064D0DF91CF911F910F916E
S11304000895CF92EF920F93CF93C22F20E0C9DFCC
S11304102C2D4E2D602F8C2FDADFCF910F91EF9082
S1130420CF9008951092B9008FEF8093B80008958B
S113043094EA9093BC009091BC009923E4F79091C6
S1130440B900987F983091F48093BB0084E880933E
S1130450BC008091BC008823E4F78091B900887FB8
S1130460883131F0803231F482E0089580E00895DB
S113047081E0089583E0089594EA9093BC009091FC
S1130480BC009923E4F79091B900987F903191F4DE
S11304908093BB0084E88093BC008091BC008823D7
S11304A0E4F78091B900887F803431F0803231F4F0
S11304B082E0089580E0089581E0089583E008953E
S11304C084E98093BC008091BC0084FDFCCF089536
S11304D08093BB0084E88093BC008091BC00882397
S11304E0E4F78091B900887F883221F0803321F4C9
S11304F081E0089580E0089582E0089584EC80937B
S1130500BC008091BC008823E4F78091BB0008956F
S113051084E88093BC008091BC008823E4F7809138
S1130520BB0008959BB19F70282F207F922B9BB90D
S11305309BB19E7F9BB99BB192609BB900009BB11C
S11305409D7F9BB931E23A95F1F700002BB130E180
S1130550839FC0011124922F9F70892B8BB98BB17B
S113056082608BB900008BB18D7F8BB983EF91E0F2
S11305700197F1F700C0000008959BB19F70282FE8
S1130580207F922B9BB99BB191609BB99BB19260E8
S11305909BB900009BB19D7F9BB931E23A95F1F77D
S11305A000002BB130E1839FC0011124922F9F7072
S11305B0892B8BB98BB182608BB900008BB18D7F95
S11305C08BB983EF91E00197F1F700C00000089523
S11305D08FEF8AB98FE493EC0197F1F700C0000024
S11305E083E3A0DF82E39EDF88E29CDF8CE09ADF76
S11305F081E098DF82E896DF08950F931F93CF93ED
S11306008C01C0E002C0B9DFCF5FF801EC0FF11D2F
S113061080818111F8CFCF911F910F910895CF93CD
S1130620DF93EA01811107C0603128F4862F8F70AF
S1130630806878DF08C0813031F4603120F4862F7F
S11306408F70806C6FDFCE01D8DFDF91CF9108957A
S113065081E068DF83EF91E00197F1F700C00000CB
S11306600895882321F08BB184608BB908958BB1F0
S11306708B7F8BB908958FEF87B914B84ADEA8DF52
S1130680F0DD81E08093980108958091980188239A
S113069051F04BEA51E060E080E0C1DF49E951E00C
S11306A060E081E0BCDF089588B1816088B988B1D9
S11306B08D7F88B9089588B1826088B988B18E7FAA
S11306C088B9089588B18C7F88B90895809197017D
S11306D0882361F180919401811102C0E5DF03C098
S11306E0813009F4E8DF189B03C081E08093940112
S11306F0199B0DC080919401813049F4E3DF10927D
S1130700970188EE93E09093030180930201209176
S11307109501309196018091020190910301820F1D
S1130720931F90939601809395010895809195016C
S11307309091960180349F4118F081E08093AA0142
S1130740089599DF0F2EF1E2CF2EF02D0F2EF5E054
S1130750EF2EF02D07E122E040E560E287E151DE73
S113076081E07FDF81E011DD8091AA01882371F0AF
S1130770A9DF8FE0E4E0F1E0ABEAB1E001900D9293
S11307808A95E1F71092AB0180DF83C0809100016C
S113079090910101883E934008F46DC0D9DDFEDDDF
S11307A080914601909147018F709078992324F4A9
S11307B00197806F9F6F01969F938F938091910112
S11307C08F93809190018F93809149018F938091B1
S11307D048018F9380914D018F9380914C018F93A9
S11307E080914B018F9380914A018F9380915301A3
S11307F08F93809152018F9383E191E09F938F9324
S11308008BEA91E09F938F931ED2809193018F93F3
S1130810809192018F93809151018F938091500127
S11308208F9381E391E09F938F9389E991E09F9364
S11308308F9309D22ADF1ADC2DB73EB7285E3F4FCB
S11308400FB6F8943EBF0FBE2DBF882381F081E020
S11308508093970110929401109296011092950141
S113086081E090E090930301809302018EDC10926A
S11308700101109200012ADF1A9B06C081E0F1DE1B
S113088081E08093980105C0E3DE80E0EADE109207
S113089098018091020190910301883E33E093070F
S11308A051F48FE39DE023E0815090402040E1F734
S11308B000C0000008C0019731F489EF90E001976F
S11308C0F1F700C0000020910001309101018091F6
S11308D0020190910301820F931F90930101809371
S11308E0000142CF0CD0EBC0E3D040F0DAD030F0BE
S11308F021F45F3F19F0CCC0511115C1CFC0F0D025
S113090098F39923C9F35523B1F3951B550BBB27D2
S1130910AA2762177307840738F09F5F5F4F220F7F
S1130920331F441FAA1FA9F333D00E2E3AF0E0E878
S113093030D091505040E695001CCAF729D0FE2FC4
S113094027D0660F771F881FBB1F26173707480756
S1130950AB07B0E809F0BB0B802DBF01FF2793580C
S11309605F4F2AF09E3F510568F092C0DCC05F3FA4
S1130970ECF3983EDCF3869577956795B795F795F4
S11309809F5FC9F7880F911D9695879597F90895EC
S1130990E1E0660F771F881FBB1F62177307840788
S11309A0BA0720F0621B730B840BBA0BEE1F88F797
S11309B0E095089504D06894B111B5C0089598D015
S11309C088F09F5790F0B92F9927B751A0F0D1F034
S11309D0660F771F881F991F1AF0BA95C9F712C0BE
S11309E0B13081F09FD0B1E008959CC0672F782F7B
S11309F08827B85F39F0B93FCCF38695779567952A
S1130A00B395D9F73EF490958095709561957F4F95
S1130A108F4F9F4F0895E89409C097FB3EF490953B
S1130A208095709561957F4F8F4F9F4F9923A9F0C3
S1130A30F92F96E9BB279395F69587957795679552
S1130A40B795F111F8CFFAF4BB0F11F460FF1BC096
S1130A506F5F7F4F8F4F9F4F16C0882311F096E929
S1130A6011C0772321F09EE8872F762F05C06623D7
S1130A7071F096E8862F70E060E02AF09A95660F90
S1130A80771F881FDAF7880F9695879597F9089549
S1130A9097F99F6780E870E060E008959FEF80EC2D
S1130AA0089500240A9416161706180609060895D0
S1130AB000240A9412161306140605060895092E36
S1130AC00394000C11F4882352F0BB0F40F4BF2BA5
S1130AD011F460FF04C06F5F7F4F8F4F9F4F0895E5
S1130AE057FD9058440F551F59F05F3F71F04795DB
S1130AF0880F97FB991F61F09F3F79F087950895C0
S1130B00121613061406551FF2CF4695F1DF08C0DE
S1130B10161617061806991FF1CF869571056105FB
S1130B2008940895E894BB2766277727CB0197F9A3
S1130B3008950BD0C4CFB5DF28F0BADF18F09523A1
S1130B4009F0A6CFABCF1124EECFCADFA0F3959F57
S1130B50D1F3950F50E0551F629FF001729FBB27A0
S1130B60F00DB11D639FAA27F00DB11DAA1F649F4C
S1130B706627B00DA11D661F829F2227B00DA11DFF
S1130B80621F739FB00DA11D621F839FA00D611D85
S1130B90221F749F3327A00D611D231F849F600DA6
S1130BA0211D822F762F6A2F11249F5750408AF0DF
S1130BB0E1F088234AF0EE0FFF1FBB1F661F771F6B
S1130BC0881F91505040A9F79E3F510570F060CFA7
S1130BD0AACF5F3FECF3983EDCF386957795679553
S1130BE0B795F795E7959F5FC1F7FE2B880F911D89
S1130BF09695879597F9089597FB072E16F4009418
S1130C0006D077FD08D00BD007FC05D03EF49095B4
S1130C1081959F4F0895709561957F4F0895AA1B04
S1130C20BB1B51E107C0AA1FBB1FA617B70710F0D3
S1130C30A61BB70B881F991F5A95A9F78095909505
S1130C40BC01CD010895AEE0B0E0E8E2F6E0AAC24E
S1130C500D891E8986E08C831A8309838FEF9FE7B1
S1130C609E838D83AE01475E5F4F6F89788DCE0181
S1130C70019608D0EF81F885E00FF11F10822E96BF
S1130C80E4E0ACC2ABE0B0E0E7E4F6E07DC26C01C6
S1130C907B018A01FC0117821682838181FFBFC117
S1130CA0CE0101963C01F6019381F70193FD8591F4
S1130CB093FF81917F01882309F4ADC1853239F412
S1130CC093FD859193FF81917F01853221F4B601D3
S1130CD090E0C0D1E8CF912C212C312CFFE1F31509
S1130CE0D8F08B3279F038F4803279F08332A1F481
S1130CF0232D20611DC08D3261F0803369F4232DD2
S1130D00216016C0832D8260382EE32DE4603E2ED0
S1130D102AC0F32DF8601DC037FC2DC020ED280F2C
S1130D202A3040F08E32B9F436FC75C1232D20648C
S1130D30322E19C036FE06C08AE0989E200D11247A
S1130D40922E11C0EAE02E9E200D1124222EF32DA6
S1130D50F0623F2E08C08C3621F4832D8068382E33
S1130D6002C0883641F4F70193FD859193FF819188
S1130D707F018111B3CF982F9F7D9554933028F430
S1130D800C5F1F4F9FE399830DC0833631F0833787
S1130D9071F0833509F055C020C0F8018081898342
S1130DA00E5F1F4F88248394912C530112C0280195
S1130DB0F2E04F0E511CF801A080B18036FE03C052
S1130DC0692D70E002C06FEF7FEFC50138D14C018F
S1130DD08201F32DFF773F2E15C0280122E0420E39
S1130DE0511CF801A080B18036FE03C0692D70E06B
S1130DF002C06FEF7FEFC50117D14C01F32DF068EE
S1130E003F2E820133FC19C0822D90E0881699068A
S1130E10A0F4B60180E290E01DD12A94F5CFF5014B
S1130E2037FC859137FE81915F01B60190E012D1C4
S1130E3021102A9421E0821A91088114910479F7EF
S1130E40E1C0843611F0893639F5F80137FE07C060
S1130E5060817181828193810C5F1F4F08C0608122
S1130E607181072E000C880B990B0E5F1F4FF32D19
S1130E70FF763F2E97FF09C09095809570956195F8
S1130E807F4F8F4F9F4FF0683F2E2AE030E0A30141
S1130E901DD1882E861844C0853731F4232D2F7E2A
S1130EA0B22E2AE030E025C0932D997FB92E8F36DB
S1130EB0C1F018F4883579F0AEC0803719F088375E
S1130EC021F0A9C0E92FE061BE2EB4FE0DC0FB2DB8
S1130ED0F460BF2E09C034FE0AC0292F2660B22E4A
S1130EE006C028E030E005C020E130E002C020E187
S1130EF032E0F801B7FE07C060817181828193817D
S1130F000C5F1F4F06C06081718180E090E00E5F2E
S1130F101F4FA301DBD0882E8618FB2DFF773F2EB1
S1130F2036FE0DC0232D2E7FA22E891458F434FED4
S1130F300BC032FC09C0832D8E7EA82E05C0B82CB0
S1130F40A32C03C0B82C01C0B92CA4FE0FC0FE0111
S1130F50E80DF11D8081803321F49A2D997EA92E0C
S1130F6009C0A2FE06C0B394B39404C08A2D867847
S1130F7009F0B394A3FC10C0A0FE06C0B21480F420
S1130F80280C922C9B180DC0B21458F4B60180E2C0
S1130F9090E060D0B394F8CFB21418F42B1802C0C8
S1130FA0982C212CA4FE0FC0B60180E390E052D00F
S1130FB0A2FE16C0A1FC03C088E790E002C088E549
S1130FC090E0B6010CC08A2D867851F0A1FE02C0D3
S1130FD08BE201C080E2A7FC8DE2B60190E03AD03A
S1130FE0891430F4B60180E390E034D09A94F8CFB9
S1130FF08A94F301E80DF11D8081B60190E02AD0B6
S11310008110F6CF222009F44ECEB60180E290E0A2
S113101021D02A94F7CFF6018681978102C08FEF01
S11310209FEF2B96E2E1CCC0FC010590615070402B
S11310300110D8F7809590958E0F9F1F0895FC019D
S11310406150704001900110D8F7809590958E0FF3
S11310509F1F08950F931F93CF93DF93FB01238169
S113106021FD03C08FEF9FEF2CC022FF16C04681E5
S11310705781248135814217530744F4A081B181FB
S11310809D012F5F3F4F318320838C9326813781CD
S11310902F5F3F4F3783268314C08B01EC01FB0184
S11310A00084F185E02D0995892BE1F6D801169687
S11310B08D919C911797019617969C938E931697F2
S11310C0CE01DF91CF911F910F910895FA01AA27C4
S11310D0283051F1203181F1E8946F936E7F6E5F77
S11310E07F4F8F4F9F4FAF4FB1E03ED0B4E03CD025
S11310F0670F781F891F9A1FA11D680F791F8A1F08
S1131100911DA11D6A0F711D811D911DA11D20D06E
S113111009F468943F912AE0269F11243019305D28
S11311203193DEF6CF010895462F4770405D419319
S1131130B3E00FD0C9F7F6CF462F4F70405D4A3366
S113114018F0495D31FD4052419302D0A9F7EACF2E
S1131150B4E0A6959795879577956795BA95C9F75D
S113116000976105710508959B01AC010A2E069450
S11311705795479537952795BA95C9F7620F731F09
S1131180841F951FA01D08952F923F924F925F9246
S11311906F927F928F929F92AF92BF92CF92DF9283
S11311A0EF92FF920F931F93CF93DF93CDB7DEB7E8
S11311B0CA1BDB0B0FB6F894DEBF0FBECDBF09947C
S11311C02A88398848885F846E847D848C849B84D3
S11311D0AA84B984C884DF80EE80FD800C811B81E1
S11311E0AA81B981CE0FD11D0FB6F894DEBF0FBE10
S10D11F0CDBFED010895F894FFCF80
S11311FAFFFFE80368617264776172652065727241
S113120A6F7200253032783A253032783A253032F6
S113121A7820253032782F253032782F25303178CE
S113122A006275646963656B20763A2025303278EA
S109123A3A253032780071
S9030000FC
